:020000040800F2
:10000000A006002001010008090100080B010008FA
:100010000D0100080F010008110100080000000098
:1000200000000000000000000000000013010008B4
:10003000150100080000000017010008053E000837
:100040001B0100081B0100081B0100081B01000820
:100050001B0100081B0100081B0100081B01000810
:100060001B0100081B0100081B0100081B01000800
:100070001B0100081B0100080D08000819080008F2
:100080001B0100081B0100081B0100081B010008E0
:100090001B0100081B0100081B0100081B010008D0
:1000A0001B0100081B0100081B0100081B010008C0
:1000B0001B0100081B0100081B0100081B010008B0
:1000C0001B0100081B0100081B0100081B010008A0
:1000D0001B010008554400081B0100081B01000813
:1000E0001B0100081B0100081B010008DFF80CD0F1
:1000F00000F008FA00480047D5440008A006002098
:100100000648804706480047FEE7FEE7FEE7FEE7B1
:10011000FEE7FEE7FEE7FEE7FEE7FEE7893E0008B2
:10012000ED000008202A04DB203A21FA02F0002129
:10013000704721FA02F3D040C2F1200291400843F7
:1001400019467047F0B480EA0102D40F4200B2EBC6
:10015000410F02D20246084611464A0042D0C30D62
:10016000DDB2C1F3C752AD1A202D35DAC1F3160145
:1001700041F4000204B15242C5F1200602FA06F130
:100180002A411044B3EBD05F23D0C4B1012DA0EBC2
:10019000C35009DCF0BC4FF0004202EAC352DBB2AC
:1001A00000F5000000F022B9400000F1807000EB83
:1001B000C350A0F1807040EAD170490009E04908BD
:1001C00041EAC071A0EBC35000F50000400800EB0D
:1001D000C350F0BC00F001B96142012202EB4101C1
:1001E000001BF6E7F0BC704781F00041AAE780F001
:1001F0000040A7E780EA010210B502F0004340008A
:1002000022D04A001FD0010E01EB1261C0F356004C
:10021000C2F3560240F4000042F40002A0FB0220A8
:1002200000047F39140400D0401C50EA124001D46D
:100230004000491EC2B20C0604EBD010401C40081E
:10024000802A02D003E0002010BD20F00100002928
:1002500000DA0020184310BD2DE9FE4F81EA0304A7
:1002600004F0004421F0004100944FF0000B23F013
:10027000004350EA01045ED052EA03045BD0C3F3AA
:100280000A54C1F30A552C44A4F2F3340194A0FBA0
:100290000254C1F3130141F48011C3F3130343F477
:1002A000801301FB024400FB034E840A970A44EAD0
:1002B000815447EA8357A4FB076802958D0A05FB22
:1002C00007854FEA932C04FB0C542705029D4FEA47
:1002D000065847EA1637B5EB08056EEB070C870E94
:1002E000920E47EA811742EA8312A7FB0201B6EB9E
:1002F0000B0164EB00042B0D43EA0C335E1844EB56
:100300001C50DA465146E7FB0201C5F313044FEADD
:100310000B3343EA14534FEA0432019C43EA0603C9
:10032000A4F10C040294009CCDE900B400F09BF809
:1003300003B0BDE8F08F00200146F9E7C10F80EA65
:10034000E0700844CA079623002100F04FB80EB5AC
:10035000C10F80EAE0700844CA07002140F233432D
:100360008DE80E000A460B4600F07DF803B000BD94
:1003700000F0004220F00040C10DC0F3160040F430
:1003800000007F2901DA00207047962903DCC1F1C3
:100390009601C84001E096398840002AF4D04042D6
:1003A000704701F0004330B421F0004150EA0102EF
:1003B00006D00A0DA2F56072C1F31301002A02DC17
:1003C00030BC00207047440F44EAC104C100E0186B
:1003D00030BC00EBC250AFF300800029A8BF7047CB
:1003E000401C490008BF20F00100704710B4B0FA6B
:1003F00080FC00FA0CF050EA010404BF10BC704706
:1004000049B1CCF1200421FA04F411FA0CF118BF1F
:10041000012121430843A3EB0C01CB1D4FEA0061EE
:100420004FEA102042BF002010BC704700EBC350C1
:1004300010440029A4BF10BC7047401C490008BFED
:1004400020F0010010BC704710B5141E73F10004B9
:1004500008DA401C41F1000192185B411A4301D1B6
:1004600020F0010010BD2DE9F04D92469B4611B1E0
:10047000B1FA81F202E0B0FA80F22032904600F048
:1004800053F804460F4640EA0A0041EA0B0153467E
:100490005A46084313D0114653EA010019D0C8F157
:1004A00040025046FFF73EFE05460E46504659466E
:1004B000424600F039F8084305D0012004E0204608
:1004C0003946BDE8F08D0020054346EAE0762C432E
:1004D00037430A986305E40AA0EB08000022FD0AEE
:1004E00044EA47540A3002D500200146E9E70105F5
:1004F00010196941DDE9084500196941BDE8F04D71
:10050000A2E70000064C074D06E0E06840F001035A
:1005100094E8070098471034AC42F6D3FFF7EAFDA1
:10052000AC450008CC450008202A04DB203A00FA3C
:1005300002F1002070479140C2F1200320FA03F33A
:1005400019439040704770B504462068816811F0E7
:10055000010F1FD0816821F00101816001F020F9B5
:1005600005462068806810F0010F13D001F018F9DB
:10057000401B022809D9A06A40F01000A062E06A7E
:1005800040F00100E062012070BD2068806810F03A
:10059000010FEBD1002070BD0449054A31F810105D
:1005A00052F82000002201F0F4B80000984500083D
:1005B000040000200449054A31F8101052F82000C8
:1005C000012201F0E6B80000984500080400002070
:1005D00010B500F0A3F800F04BF8CC2000F0B8F80C
:1005E000442000F0B5F8022000F0E2F800F096F8A0
:1005F00000F03EF8CC2000F0ABF8BE2000F0A8F8E8
:1006000000F062F8044600F05FF8000201B251EA1F
:100610000400074C01D5C043401CFFF798FE0022A0
:100620002346FFF719FEBDE81040FFF7BABE0000F1
:10063000000019401FB50020019002900390042093
:1006400000906946014800F0ABFF1FBD0008014063
:100650001FB500200290042000901120019003207B
:1006600003906946014800F09BFF1FBD0008014050
:1006700070B50024FFF7DEFF124D04E0641CE4B205
:10068000012000F095F80421284601F07BF810B114
:10069000642CF3D30FE0642C0DD2002404E0641C1E
:1006A000E4B2012000F084F80421284601F06AF841
:1006B00018B1F02C04D3012070BDF02CEFD3FAE771
:1006C000002070BD000801402DE9F0410026124FC6
:1006D000354600BFFFF7BCFF00220421384601F079
:1006E00058F80A2000F064F8FFF7A4FF0421384608
:1006F00001F048F801280DD000242D2000F058F812
:10070000AC4034436D1CEDB2E6B2082DE2D3304666
:10071000BDE8F0810124F0E70008014010B5FFF7C3
:1007200097FF0A4C00220421204601F032F840F2E3
:10073000EE2000F03DF801220421204601F029F8C6
:10074000BDE810400F2000F033B800000008014061
:1007500070B50546FFF77CFF144E002415F0010F1D
:100760004FEA55054FF000024FF0040130460BD020
:1007700001F00FF8082000F01BF801220421304698
:1007800001F007F83A200AE001F003F8462000F0F3
:100790000FF801220421304600F0FBFF022000F098
:1007A00007F8641CE4B2082CD8D370BD00080140DF
:1007B00070B54FF0E0240546666901F0FFFB0A4979
:1007C000B0FBF1F04543A1690020A2698A42FCD048
:1007D00002D2A1EB020102E0A6EB02031944084495
:1007E0001146A842F1D370BD00127A000020FFF735
:1007F000D3BE0020FFF7DEBE03484088002801D0AA
:1008000000F001BE7047000014000020014800F015
:100810006DBC0000CC010020014800F067BC000066
:1008200004020020D0F800C0CCF804304368102B3C
:1008300004D0036899600068C260704703689A60DA
:100840000068C1607047000011490988114A128888
:10085000002815D0012801D0002070474EF6EE6028
:1008600012B139B1AB207047814201D100207047ED
:1008700040207047824201D14020704700207047DD
:1008800011B11AB1AB20704700207047402070476B
:10089000008000080080010810B586B00020049098
:1008A0000090124C029420460122039200F0D4F9E9
:1008B00028B904A9684600F0B1FD002813D1002230
:1008C00013462146012000F00DFE00280BD10848F8
:1008D000029000F0C1F928B904A9684600F09EFD15
:1008E000002800D1002006B010BD000000800008E4
:1008F000008001082DE9F04F85B00024651EA04658
:10090000CDF81080764F3988764E3088CDF800804B
:1009100002974FF00109CDF80C902A0CDFF8C8A11E
:10092000DFF8C8B1002974D0A1F56E41EE3935D099
:10093000A1F58851113907D0FFF7AEFF002800D18B
:10094000002005B0BDE8F08F68B1A0F56E41EE392A
:1009500004D0FFF7A1FF0028F3D1F1E7384600F0FB
:100960007BF960B111E0384600F076F90028E7D154
:1009700004A9684600F052FD0028E2D1E0E704A98E
:10098000684600F04BFD0028DBD1002213463146BB
:10099000012000F0A7FD0028D3D1D1E738B1904263
:1009A00048D13046029600F057F998B339E0F988FB
:1009B0003AF81400814200D125B2AC420CD04B4928
:1009C00000F0F2F8012807D03AF81400BBF8001044
:1009D00000F012F90028B4D1601C84B2032CE6D3D5
:1009E000002213463946012000F07CFD0028A8D1E2
:1009F000CDF8008030460296CDF80C9000F02CF92E
:100A000000289DD104A9684600F008FD002898D16F
:100A100096E714E0FFE704A9684600F0FFFC002811
:100A20008FD1002213463946012000F05BFD0028DB
:100A300087D185E7FFF730FF002882D180E780B1BA
:100A4000904214D13046029600F006F900287FF457
:100A500077AF04A9684600F0E1FC00287FF471AF8D
:100A60006EE7FFF719FF00287FF46BAF68E7F188A6
:100A70003AF81400814200D125B2AC420DD01B4996
:100A800000F092F8012808D03AF81400BBF80010E2
:100A900000F0B2F800287FF454AF601C84B2032C3D
:100AA000E5D3002213463146012000F01BFD00284B
:100AB0007FF447AFCDF8008038460297CDF80C9010
:100AC00000F0CAF800287FF43BAF04A9684600F0A4
:100AD000A5FC00283FF434AF05B0BDE8F08F00005E
:100AE00000800008008001081C0000209C000020FD
:100AF0002DE9F04786B007460E46DFF89CA0D046A9
:100B00000024A146CDF810900020FFF79DFE234D54
:100B1000402806D018B1AB2006B0BDE8F087A84643
:100B200055464EF6EE6200234146012000F0DAFC05
:100B30000028F1D13146384600F05EF80028EBD1AC
:100B4000174EDFF860A036F81400B8420CD01549F3
:100B500000F02AF8012807D036F81400BAF800107F
:100B600000F04AF80028D7D1601C84B2032CEAD3E5
:100B7000CDF8009002950120039004A9684600F08A
:100B80004DFC0028C8D1002213464146012000F048
:100B9000A9FC06B0BDE8F0870080000800800108CD
:100BA0001C0000209C0000202DE9F04104460E4668
:100BB0000125104F0020FFF747FEAB2810D007EBB0
:100BC0008021401CBA1E02EB8022881C82420DD973
:100BD0001388A34207D132F8020C3080002505E0CB
:100BE000AB20BDE8F081121F8242F1D82846BDE853
:100BF000F08100000080000870B505460E46144CD8
:100C00000120FFF721FEAB2810D004EB802411490E
:100C1000401C01EB80218C4206D22068B0F1FF3FDE
:100C200006D0241D8C42F8D3802070BDAB2070BD4F
:100C3000324600232146012000F054FC0028F6D162
:100C4000A11C2A46BDE870400023012000F04ABCE8
:100C500000800008FF7F00084FF0010C084A904216
:100C60000AD84FF6FF730188994202D04FF0000C6A
:100C700002E0001D9042F6D91FFA8CF07047000088
:100C8000FF83000870B504460D4629462046FFF74D
:100C9000B3FF802805D129462046BDE87040FFF704
:100CA00027BF70BD06490020C8610648016941F0B0
:100CB00004010161016941F04001016170470000D8
:100CC000A000002000200240064A0021D161064910
:100CD0000A6942F002020A614861086940F0400076
:100CE00008617047A000002000200240044B002251
:100CF000DA61044A136943F001031361018070470C
:100D0000A0000020002002401049C86810F0100F19
:100D10000F4803D0C26942F00202C261CA6812F0F1
:100D2000040F03D0C26942F00102C261CA6912F025
:100D3000010F07D0C26942F00402C261C86920F005
:100D40000100C8611420C860704700000020024004
:100D5000A000002070B5044600F022FD0646164DA6
:100D6000E86810F0010F0ED0B4F1FF3F07D024B1B6
:100D700000F016FD801BA04201D9032070BDE86879
:100D800010F0010FF0D1E86810F0200F01D0202002
:100D9000E860E86810F0100F07D1E86810F0040F61
:100DA00003D1E86910F0010F03D0FFF7ADFF012078
:100DB00070BD002070BD0000002002400020704780
:100DC0000148B0F9060070471400002001488088EF
:100DD00000B2704714000020002070472DE9F80190
:100DE0004FF0000C0024009490F82420012A20D019
:100DF000012280F824204A681F264FF47875072ABC
:100E00001BD203685F6B95FAA5F8521EB8FA88F8F2
:100E100002FB08F806FA08F627EA060695FAA5F591
:100E2000B5FA85F50F686A4307FA02F232435A634E
:100E300034E0BDE8F801022070470D2A17D203689C
:100E40001F6B95FAA5F8D21FB8FA88F802FB08F8CC
:100E500006FA08F627EA060695FAA5F5B5FA85F525
:100E60000F686A4307FA02F232431A6316E0036816
:100E7000DF6A95FAA5F80D3AB8FA88F802FB08F887
:100E800006FA08F627EA060695FAA5F5B5FA85F5F5
:100E90000F686A4307FA02F23243DA620A683825B9
:100EA00007260A2A17D30368DF6895FAA5F80A3AD5
:100EB000B8FA88F802FB08F806FA08F627EA0606E8
:100EC00095FAA5F5B5FA85F58F686A4307FA02F237
:100ED0003243DA6015E003681F6995FAA5F8B8FA9D
:100EE00088F802FB08F806FA08F627EA060695FADB
:100EF000A5F5B5FA85F58F686A4307FA02F2324321
:100F00001A610A68102A01D0112A0BD10268A2F1D5
:100F10008043B3F592330BD0816A41F020018162A6
:100F20004FF0010C80F82440BDE8F801604670479E
:100F3000936813F4000FF5D1936843F400039360B2
:100F400009681029EED10949094A0968B1FBF2F193
:100F500001EB81014900009100990029E2D000993C
:100F6000491E009100990029F9D1DBE7000000201B
:100F700040420F0070B504460025002C03D0A06A43
:100F8000002610B107E0012070BDE66284F82460FD
:100F9000204600F08DF82046FFF7D5FA0146A06AFA
:100FA00000F0100252EA010006D0A06A40F01000E2
:100FB000A0620121084670BDA06A20F4885040F06C
:100FC0000200A062E2696068E3680243022090FACE
:100FD000A0F0B0FA80F003FA00F00243A068B0F588
:100FE000807F08D0012806D00020D4F814C0BCF1BE
:100FF000010F03D00BE04FF48070F6E7E3B1A36A72
:1010000043F02003A362E36A43F00103E362236831
:10101000D3F804C02CF4694C4CEA000058602068F6
:101020008368DFF884C003EA0C0313438360A0687D
:10103000B0F5807F0ED017E0A3694FF4604C9CFAA6
:10104000ACFC5B1EBCFA8CFC03FA0CF3184340F4B6
:101050000060DCE720694FF4700393FAA3F3401EAD
:10106000B3FA83F300FA03F52068C36A23F470032C
:101070002B43C362206880680C4B1840904207D114
:10108000E662A06A20F0020040F00100A06291E751
:10109000A06A20F0020040F01000A062E06A40F078
:1010A0000100E062012185E7FDF7E1FFFE0E1FFF71
:1010B00000B587B00068A0F18041B1F592310FD141
:1010C0000848816941F400718161806900F4007011
:1010D000019003200290039002A9034800F060FAF7
:1010E00007B000BD00100240000801402DE9F05F8C
:1010F0000446DFF838A2DAF80020DFF834B22068BE
:101100008C4D8D4E8D4FDFF83882DFF83892584580
:1011100001D1082119E0A84201D1802115E0B04297
:1011200002D14FF4006110E0B84202D14FF4004107
:101130000BE0404502D14FF4002106E0484502D1C2
:101140004FF4000101E04FF000610A4236D001681F
:1011500011F0080F32D0016821F008010160206809
:10116000584501D1082019E0A84201D1802015E09E
:10117000B04202D14FF4006010E0B84202D14FF407
:1011800000400BE0404502D14FF4002006E0484506
:1011900002D14FF4000001E04FF00060CAF80400F3
:1011A000606B40F001006063042084F8210000209F
:1011B00084F82000216B09B120468847DAF8002026
:1011C0002068584501D1042119E0A84201D14021ED
:1011D00015E0B04202D14FF4806110E0B84202D174
:1011E0004FF480410BE0404502D14FF4802106E0EE
:1011F000484502D14FF4800101E04FF080610A427E
:1012000033D0016811F0040F2FD0016811F0200FC6
:1012100003D1016821F0040101602068584501D123
:10122000042019E0A84201D1402015E0B04202D1CB
:101230004FF4806010E0B84202D14FF480400BE0E0
:10124000404502D14FF4802006E0484502D14FF4DA
:10125000800001E04FF08060CAF80400112084F89B
:101260002100E16A09B120468847DAF800202068A9
:10127000584501D1022119E0A84201D1202115E0F1
:10128000B04202D14FF4007110E0B84202D14FF4E5
:1012900000510BE0404502D14FF4003106E04845D3
:1012A00002D14FF4001101E04FF000710A423BD02F
:1012B000016811F0020F37D0016811F0200F03D13F
:1012C000016821F0020101602068584501D1022027
:1012D00019E0A84201D1202015E0B04202D14FF41C
:1012E000007010E0B84202D14FF400500BE04045CE
:1012F00002D14FF4003006E0484502D14FF400100F
:1013000001E04FF00070CAF80400606B60630120D8
:1013100084F82100002084F82000A16A002903D06D
:101320002046BDE8F05F0847BDE8F09F000002409E
:10133000080002401C00024030000240440002400D
:10134000580002406C00024030B4002804D090F8ED
:101350002110002319B104E030BC0120704780F84F
:101360002030022180F8211001680A686FF30D1205
:10137000D0F804C0846805694CEA040CC4682C43A6
:101380004CEA040C44694CEA040C84694CEA040CF1
:10139000C4694CEA040C4CEA02020A60436301216E
:1013A00080F8211030BC0020704710B5044694F836
:1013B0002000012825D0012084F82000022084F894
:1013C00021002068D0F800C02CF0010CC0F800C04B
:1013D0002046FFF727FA2068016841F0020101600A
:1013E0002068016841F0040101602068016841F053
:1013F000080101602068016841F0010101600020DE
:1014000010BD022010BD31B500F0CAF9044600F04D
:10141000C7F90099001B8842F9D338BD2DE9F04780
:1014200005460F464FF00109DFF89C8098F8180038
:1014300001280CD0012088F818002868234E0228C3
:1014400008D04CF25030FFF785FCA8B136E00220FE
:10145000BDE8F0874CF25030FFF77CFC28BB012040
:10146000FFF720FC4CF25030FFF774FC81463069E6
:1014700020F00400306121E04FF0FF303860AC68AC
:10148000E86804EB8020A04218D92046FFF71CFC36
:101490004CF25030FFF75EFC8146306920F00200CC
:1014A00030615FEA090001D03C6007E004F5806428
:1014B000E968A86800EB8120A042E6D8002088F8FF
:1014C00018004846BDE8F087A00000200020024038
:1014D0000348016941F0800101610020704700006C
:1014E000002002402DE9F0470746884615461E4673
:1014F0000024DFF87C9099F81800012808D001201A
:1015000089F818004CF25030FFF724FC18B129E09C
:101510000220BDE8F087012F1CD0022F1CD0042729
:10152000002F1FD9DFF84CA0220128463146FEF7D4
:10153000F9FD81B208EB4400FFF7D8FB4CF25030C4
:10154000FFF708FCDAF8101021F00101CAF81010BA
:1015500040B903E00127E3E70227E1E7611CCCB2D1
:10156000BC42E1D3002189F81810BDE8F0870000E3
:10157000A0000020002002400648016911F0800F01
:1015800005D00549416005494160002070470120B0
:10159000704700000020024023016745AB89EFCD72
:1015A0002DE9F84F00239C46DFF8CC810F2708F186
:1015B000040909F1040A0AF1040B012202FA0CF6EB
:1015C0000A683240B2427DD1DFF8B0E14C68A4EB4A
:1015D0000E0574452BD00DDC032C34D005DC34B360
:1015E000012C19D0022C2FD11BE0112C16D0122C5B
:1015F0002AD119E0B5F5881F19D006DCB5F5803F72
:1016000015D0B5F5801F1FD111E0B5F5001F0ED024
:10161000B5F5041F18D10AE0CB6815E0CB681B1D97
:1016200012E0CB6808330FE0CB680C330CE08B681A
:1016300023B1012B04D00823466105E0042303E015
:101640000823066100E00023B2F5807F01D2054641
:1016500001E000F1040502D24FEA8C0403E0ACF192
:1016600008044FEA84042E6807FA04FE26EA0E06F0
:1016700003FA04F446EA04042C604C6814F0805F1A
:1016800072D03F4CA56945F00105A561A46904F03D
:10169000010400942CF0030404F1804404F5803428
:1016A000A6684FEA8C754FEA157507FA05FE26EA1B
:1016B0000E0EA0F18046B6F584361AD0B6F58066D7
:1016C00019D000E050E0B6F5806616D0B6F5806619
:1016D00015D0042606FA05F545EA0E05A5604C6806
:1016E00014F4803F0DD0D8F800401443C8F80040EF
:1016F0000CE00026EEE70126ECE70226EAE70326E7
:10170000E8E7D8F800409443C8F800404C6814F467
:10171000003F05D0D9F800401443C9F8004004E068
:10172000D9F800409443C9F800404C6814F4801F75
:1017300005D0DAF800401443CAF8004004E0DAF8B3
:1017400000409443CAF800404C6814F4001F05D0D0
:10175000DBF800402243CBF8002005E0DBF8004036
:1017600024EA0202CBF800200CF1010CBCF1100FAE
:10177000FFF423AFBDE8F88F000401400000111012
:10178000001002408068084201D00120704700200C
:101790007047002A01D00161704709040161704758
:1017A00001480068704700000800002010B504469A
:1017B000002C0AD02068C16811F0010F07D0C06862
:1017C00010F0020F03D0012010BD012010BD607B7E
:1017D00020B900202073204600F018F80220607322
:1017E000216845F25550086020684168626821F020
:1017F00007011143416020688168A2686FF30B0103
:101800001143816001206073002010BD70472DE9F5
:10181000F0410446207B012818D0012626730220BF
:101820006073FFF7BDFF05462068C0684FF00007F2
:1018300010F0020F12D0FFF7B3FF401BB0F57A7F14
:1018400007D9032060732773BDE8F0810220BDE84B
:10185000F0812068C06810F0020FECD121684AF6D0
:10186000AA200860667327730020BDE8F081017B21
:10187000012910D0012101730222427303684CF642
:10188000CC421A6003684AF6AA221A60417300210A
:101890000173002070470220704700000248016871
:1018A000491C0160704700000800002010B507487F
:1018B000016841F010010160032000F077F800207A
:1018C00000F006F800F016F8002010BD00200240DD
:1018D00010B5044600F072FB4FF47A72B0FBF2F0E0
:1018E00001F082FA00222146501E00F02BF8002061
:1018F00010BD000008B50B48816941F0010181610C
:10190000806900F001000090032000F04FF80022F1
:101910001146501E00F016F80348416821F0E061BE
:10192000416008BD001002400000014000F01F01AE
:10193000012202FA01F14009800000F1E020C0F824
:101940000011704710B4184B1B68C3F30223C3F196
:10195000070CBCF1040F01D94FF0040C1C1D072C1F
:1019600001D2002300E0DB1E012404FA0CFCACF1E0
:10197000010C0CEA0101994004FA03F35B1E1A40C2
:101980001143002808DA00F00F0000F1E0200901FF
:1019900080F8141D10BC704700F1E020090180F8A8
:1019A000001410BC704700000CED00E000F00700D0
:1019B000064A11684FF6FF03194041EA002040F043
:1019C000FD7040F080601060704700000CED00E09A
:1019D0000120010291FAA1F1B1FA81F1890001F12E
:1019E000844101F5602108607047000010B586B0A1
:1019F00001463FA0D0F808C043680268C068CDF82F
:101A000010C00393029205903DA000680190002051
:101A10003C4C012934D0022957D010292ED16168BD
:101A2000226812F0807F29D04FF4701292FAA2F24D
:101A300001F47010B2FA82F2D04002AA105C11F4E4
:101A4000803F10D061684FF4003292FAA2F201F4A4
:101A50000031B2FA82F2D14001AA515C2A4AB2FBAB
:101A6000F1F1484301E029494843616811F4800FCE
:101A700004D127494000A1FB0010400806B010BD6A
:101A8000216A01F44072B2F5807F06D111F0020F95
:101A900003D006B04FF4004010BDB2F5007F07D16F
:101AA000626A12F0020F03D049F6404006B010BD42
:101AB0004FF4407232EA0101F8D1216811F4003F7D
:101AC000F4D006B04FF2244010BD00F0A7FA6168D0
:101AD0004FF4804292FAA2F201F44041B2FA82F24B
:101AE000D140491C4900B0FBF1F006B010BD000028
:101AF00002030405060708090A0B0C0D0E0F10104F
:101B0000010200000010024000127A0000093D00AE
:101B1000ABAAAAAA2DE9F84304465E4E207810F03D
:101B2000010F78D0F06940F08050F061F06900F06A
:101B300080500090584D286840F480702860FFF76E
:101B40002FFE0746286810F4807F0BD1FFF728FE90
:101B5000C01B642802D90320BDE8F883286810F46C
:101B6000807FF3D0306AA18800F4407001F44071A6
:101B7000884278D0306A20F440704FF4803191FA76
:101B8000A1F2B2FA82F2920002F1844202F58402DA
:101B90004FF00108C2F8008491FAA1F10022B1FAD5
:101BA00081F1890001F1844101F58401C1F800242B
:101BB000306210F0020F50D0FFF7F2FD0746022509
:101BC00095FAA5F0B0FA80F040F04000B8EB501F55
:101BD00001D130680BE095FAA5F0B0FA80F040F042
:101BE0004000B5EB501F01D1306A00E0706A95FAF1
:101BF000A5F1B1FA81F101F01F0108FA01F10842E3
:101C00002BD141F28839FFF7CBFDC01B484503D9E2
:101C10000320BDE8F88326E095FAA5F0B0FA80F03D
:101C200040F04000B8EB501F01D131680BE095FA4D
:101C3000A5F0B0FA80F040F04000B5EB501F01D1A4
:101C4000316A00E0716A95FAA5F0B0FA80F000F010
:101C50001F0008FA00F00142D5D0306A616820F414
:101C6000407008433062207810F0020F05D0706891
:101C7000A16820F4404008437060207810F0100FF5
:101C800005D07068E16820F480000843706000208F
:101C9000BDE8F88300100240007000402DE9F047D5
:101CA00004460F46DFF80C93D9F80000012200F03B
:101CB000070053040226C04D4FF0007C41F28838E3
:101CC000B8427DD2D9F8000020F007003843C9F8A7
:101CD0000000D9F8000000F00700B84202D001204F
:101CE000BDE8F087207810F0020F05D06868A16881
:101CF00020F0F00008436860207810F0010F00F039
:101D00003D81606801280BD0022820D096FAA6F108
:101D1000B1FA81F141F0200149092FD029682EE064
:101D200093FAA3F1B1FA81F141F02001490901D000
:101D3000296800E0696A93FAA3F3B3FA83F303F026
:101D40001F039A40114226D10120BDE8F0879CFA7A
:101D5000ACF1B1FA81F141F02001490901D02968C3
:101D600000E0696A9CFAACF3B3FA83F303F01F0353
:101D70009A4011420FD10120BDE8F087696A96FAB6
:101D8000A6F3B3FA83F303F01F039A40114202D182
:101D90000120BDE8F087696821F00301084368600D
:101DA000FFF7FEFC0646606801280FD0022820D00D
:101DB000686810F00C0F72D0FFF7F2FC801B00E097
:101DC0002FE0404528D90320BDE8F087686800F07F
:101DD0000C00042863D0FFF7E3FC801B404502D9C8
:101DE0000320BDE8F087686800F00C000428F2D1F9
:101DF000C4E0686800F00C00082850D0FFF7D0FC61
:101E0000801B404502D90320BDE8F087686800F0D8
:101E10000C000828F2D1B1E0686810F00C0FCBD1AB
:101E2000ACE0207810F0020F05D06868A16820F0BF
:101E3000F00008436860207810F0010F70D06068EF
:101E400001280BD0022820D096FAA6F1B1FA81F130
:101E500041F02001490930D029682FE093FAA3F11D
:101E6000B1FA81F141F02001490901D0296800E06F
:101E7000696A93FAA3F3B3FA83F303F01F039A405A
:101E8000114227D10120BDE8F0879CFAACF1B1FAEC
:101E900081F141F02001490902D0296801E06DE09B
:101EA000696A9CFAACF3B3FA83F303F01F039A4018
:101EB00011420FD10120BDE8F087696A96FAA6F3B6
:101EC000B3FA83F303F01F039A40114202D10120B9
:101ED000BDE8F087696821F0030108436860FFF7F7
:101EE0005FFC0646606801280DD002281FD0686894
:101EF00010F00C0F32D0FFF753FC801B404529D95E
:101F00000320BDE8F087686800F00C00042825D0A5
:101F1000FFF746FC801B404503D90320BDE8F0874E
:101F20001CE0686800F00C000428F1D116E0686835
:101F300000F00C00082811D0FFF732FC801B404550
:101F400002D90320BDE8F087686800F00C0008287B
:101F5000F2D103E0686810F00C0FCCD1D9F8000082
:101F600020F007003843C9F80000D9F8000000F05D
:101F70000700B84202D00120BDE8F087207810F0B9
:101F8000040F05D06868E16820F4E06008436860E9
:101F9000207810F0080F06D06868216920F460509E
:101FA00040EAC10068600020FFF792FC0020BDE815
:101FB000F0870000002002400010024010B500F041
:101FC00043F808494968F02292FAA2F201F0F001C0
:101FD000B2FA82F2D140044A515CC8400349086019
:101FE00010BD0000001002409A45000800000020CB
:101FF00010B5FFF7E3FF074949684FF4E06292FA32
:10200000A2F201F4E061B2FA82F2D140024A515CDC
:10201000C84010BD001002409A45000810B5FFF7F7
:10202000CDFF074949684FF4605292FAA2F201F4D9
:102030006051B2FA82F2D140024A515CC84010BDF0
:10204000001002409A45000885B01DA00368826810
:102050004168C06801930392029104901CA000683B
:1020600000901C4B59681C4801F00C02042A21D036
:10207000082A1FD14FF4701C9CFAACFC01F47012BA
:10208000BCFA8CFC22FA0CF20DF1040C1CF80220B4
:1020900011F4803F10D059684FF4003393FAA3F342
:1020A00001F40031B3FA83F3D9401DF80110B0FBFD
:1020B000F1F0504305B07047084805B050437047F1
:1020C00002030405060708090A0B0C0D0E0F101079
:1020D000010200000010024000127A0000093D00D9
:1020E0002DE9F84F0446FC4D207841F2883710F076
:1020F000010F4FF0010600F0018168684FF40038CD
:1021000000F00C00042808D0686800F00C000828D3
:102110001ED1686810F4803F1AD098FAA8F0B0FA7F
:1021200080F040F02000400901D0286800E0686A93
:1021300098FAA8F1B1FA81F101F01F0106FA01F154
:10214000084270D0606800286DD10120BDE8F88F8A
:10215000286820F480302860286820F480202860D7
:10216000FFF71EFB814698FAA8F0B0FA80F040F025
:102170002000400901D0286800E0686A98FAA8F1B8
:10218000B1FA81F101F01F0106FA01F108421DD0F8
:10219000FFF706FBA0EB0900B84202D90320BDE817
:1021A000F88F98FAA8F0B0FA80F040F020004009CB
:1021B00001D0286800E0686A98FAA8F1B1FA81F1C4
:1021C00001F01F0106FA01F10842E1D16068B0F5A3
:1021D000803F1AD0F0B1B0F5A02F25D0286820F4A8
:1021E00080302860286820F4802028606068C0B3B0
:1021F000FFF7D6FA814698FAA8F0B0FA80F040F0DE
:102200002000400919D0286818E0286840F4803080
:102210002860EBE7286820F480302860286820F4E4
:1022200080202860E2E769E0286840F48020286088
:10223000286840F480302860D8E7686A98FAA8F1E6
:10224000B1FA81F101F01F0106FA01F1084255D1FE
:10225000FFF7A6FAA0EB0900B84203D90320BDE8B6
:10226000F88F15E098FAA8F0B0FA80F040F020005E
:10227000400901D0286800E0686A98FAA8F1B1FA2C
:1022800081F101F01F0106FA01F10842E0D035E0CA
:10229000FFF786FA814698FAA8F0B0FA80F040F08D
:1022A0002000400901D0286800E0686A98FAA8F187
:1022B000B1FA81F101F01F0106FA01F108421DD0C7
:1022C000FFF76EFAA0EB0900B84202D90320BDE87F
:1022D000F88F98FAA8F0B0FA80F040F0200040099A
:1022E00001D0286800E0686A98FAA8F1B1FA81F193
:1022F00001F01F0106FA01F10842E1D120784FF008
:10230000000910F0020F4FF002084ED068684FF03D
:10231000F80B10F00C0F21D0686800F00C000828B2
:1023200003D1686810F4803F18D0206988B396FA0A
:10233000A6F0B0FA80F0800000F1844000F584003F
:102340000660FFF72DFA824698FAA8F0B0FA80F0FE
:1023500040F02000400929D0286828E098FAA8F029
:10236000B0FA80F040F02000400901D0286800E079
:10237000686A98FAA8F1B1FA81F101F01F0106FA32
:1023800001F1084206D02069012803D00120BDE8F0
:10239000F88F40E028689BFAABF26169B2FA82F2EA
:1023A00020F0F80091400843286075E0686A98FAC8
:1023B000A8F1B1FA81F101F01F0106FA01F108421A
:1023C0001DD1FFF7EDF9A0EB0A00642802D9032024
:1023D000BDE8F88F98FAA8F0B0FA80F040F020003D
:1023E000400901D0286800E0686A98FAA8F1B1FABB
:1023F00081F101F01F0106FA01F10842E1D02868DD
:102400009BFAABF26169B2FA82F220F0F8009140D7
:102410000843286040E096FAA6F0B0FA80F0800009
:1024200000F1844000F58400C0F80090FFF7B8F98F
:10243000824698FAA8F0B0FA80F040F020004009F7
:1024400001D0286800E0686A98FAA8F1B1FA81F131
:1024500001F01F0106FA01F108421DD0FFF7A0F9B3
:10246000A0EB0A00642802D90320BDE8F88F98FA8F
:10247000A8F0B0FA80F040F02000400901D02868B0
:1024800000E0686A98FAA8F1B1FA81F101F01F0141
:1024900006FA01F10842E1D1207810F0080F61D06E
:1024A000A069D0B396FAA6F0B0FA80F0800000F1EF
:1024B000844000F58400C0F88064FFF771F982461B
:1024C00098FAA8F0B0FA80F040F06000B6EB501F28
:1024D00004D128680EE000000010024098FAA8F02D
:1024E000B0FA80F040F06000B8EB501F01D1286ACC
:1024F00000E0686A98FAA8F1B1FA81F101F01F01D1
:1025000006FA01F108422AD1FFF74AF9A0EB0A00C6
:10251000642803D90320BDE8F88F24E098FAA8F0D6
:10252000B0FA80F040F06000B6EB501F01D128688F
:102530000BE098FAA8F0B0FA80F040F06000B8EB39
:10254000501F01D1286A00E0686A98FAA8F1B1FA30
:1025500081F101F01F0106FA01F10842D4D00120F7
:10256000FEF751FF58E096FAA6F0B0FA80F080002E
:1025700000F1844000F58400C0F88094FFF710F962
:10258000824698FAA8F0B0FA80F040F06000B6EB0E
:10259000501F01D128680BE098FAA8F0B0FA80F03B
:1025A00040F06000B8EB501F01D1286A00E0686A73
:1025B00098FAA8F1B1FA81F101F01F0106FA01F1D0
:1025C000084229D0FFF7ECF8A0EB0A00642802D9F2
:1025D0000320BDE8F88F98FAA8F0B0FA80F040F038
:1025E0006000B6EB501F01D128680BE098FAA8F004
:1025F000B0FA80F040F06000B8EB501F01D1286ABB
:1026000000E0686A98FAA8F1B1FA81F101F01F01BF
:1026100006FA01F10842D5D1207810F0040F70D0ED
:10262000E86940F08050E861E86900F0805000906F
:10263000DFF844B4DBF8000040F48070CBF8000011
:10264000FFF7AEF88246DBF8000010F4807F0DD172
:10265000FFF7A6F8A0EB0A00642802D90320BDE822
:10266000F88FDBF8000010F4807FF1D0286A20F0AA
:1026700001002862286A20F004002862FFF790F821
:10268000824698FAA8F0B0FA80F040F04000B6EB2D
:10269000501F01D128680BE098FAA8F0B0FA80F03A
:1026A00040F04000B8EB501F01D1286A00E0686A92
:1026B00098FAA8F1B1FA81F101F01F0106FA01F1CF
:1026C00008422AD0FFF76CF8A0EB0A00B84202D902
:1026D0000320BDE8F88F98FAA8F0B0FA80F040F037
:1026E0004000B6EB501F01D128680CE098FAA8F022
:1026F000B0FA80F040F04000B8EB501F02D1286AD9
:1027000001E0CFE0686A98FAA8F1B1FA81F101F02E
:102710001F0106FA01F10842D4D1E06801281AD05D
:10272000F0B1052825D0286A20F001002862286A27
:1027300020F004002862E06878B3FFF731F88246A1
:1027400098FAA8F0B0FA80F040F04000B6EB501FC5
:1027500018D1286823E0286A40F001002862EAE7DF
:10276000286A20F001002862286A20F0040028620C
:10277000E1E7286A40F004002862286A40F001007E
:102780002862D8E798FAA8F0B0FA80F040F040004C
:10279000B8EB501F02D1286A01E035E0686A98FA68
:1027A000A8F1B1FA81F101F01F0106FA01F1084226
:1027B00078D1FEF7F5FFA0EB0A00B84202D903205A
:1027C000BDE8F88F98FAA8F0B0FA80F040F0400029
:1027D000B6EB501F01D128680BE098FAA8F0B0FAC8
:1027E00080F040F04000B8EB501F01D1286A00E0B3
:1027F000686A98FAA8F1B1FA81F101F01F0106FAAE
:1028000001F10842D5D04DE0FEF7CAFF824698FAA2
:10281000A8F0B0FA80F040F04000B6EB501F01D1B4
:1028200028680BE098FAA8F0B0FA80F040F0400079
:10283000B8EB501F01D1286A00E0686A98FAA8F145
:10284000B1FA81F101F01F0106FA01F1084229D025
:10285000FEF7A6FFA0EB0A00B84202D90320BDE8AC
:10286000F88F98FAA8F0B0FA80F040F04000B6EB8C
:10287000501F01D128680BE098FAA8F0B0FA80F058
:1028800040F04000B8EB501F01D1286A00E0686AB0
:1028900098FAA8F1B1FA81F101F01F0106FA01F1ED
:1028A0000842D5D1E069D0B3696801F00C0108296C
:1028B0007ED04FF0807A4FF00078022817D09AFA35
:1028C000AAF0B0FA80F0800000F1844000F58400A6
:1028D000C0F80090FEF764FF044698FAA8F0B0FA3A
:1028E00080F040F0200040097ED0286897E09AFAF6
:1028F000AAF0B0FA80F0800000F1844000F5840076
:10290000C0F80090FEF74CFF074698FAA8F0B0FA1E
:1029100080F040F02000400902D0286801E0A5E0E6
:10292000686A98FAA8F1B1FA81F101F01F0106FA7C
:1029300001F108421CD0FEF733FFC01B642802D906
:102940000320BDE8F88F98FAA8F0B0FA80F040F0C4
:102950002000400901D0286800E0686A98FAA8F1D0
:10296000B1FA81F101F01F0106FA01F10842E2D14A
:10297000206AB0F5803F05D16868A16820F4003076
:1029800008436860616A206A0843696821F4741129
:10299000084368609AFAAAF0B0FA80F0800000F16B
:1029A000844000F584000660FEF7FAFE044600E06D
:1029B0005FE098FAA8F0B0FA80F040F020004009FB
:1029C00001D0286800E0686A98FAA8F1B1FA81F1AC
:1029D00001F01F0106FA01F1084247D1FEF7E0FEBF
:1029E000001B642804D900E018E00320BDE8F88F3C
:1029F00098FAA8F0B0FA80F040F02000400901D029
:102A0000296800E0696A98FAA8F0B0FA80F000F04E
:102A10001F0006FA00F00142E0D027E0686A98FA49
:102A2000A8F1B1FA81F101F01F0106FA01F10842A3
:102A30001CD0FEF7B5FE001B642802D90320BDE8B8
:102A4000F88F98FAA8F0B0FA80F040F02000400922
:102A500001D0296800E0696A98FAA8F0B0FA80F01D
:102A600000F01F0006FA00F00142E2D10020BDE8AC
:102A7000F88F0120BDE8F88F0070004010B40028E6
:102A800014D099B1027C012A13D0012303740222CD
:102A90004274124A126812F4C07F4FF000020BD049
:102AA00004214174027410BC0120704710BC012045
:102AB000704710BC02207047D1F800C049684CEA4A
:102AC000010C07490C6824F003044CEA040CC1F81B
:102AD00000C04374027410BC002070472C6C00408E
:102AE000306C004070B50446002C03D0607C00269A
:102AF00010B105E0012070BD2674204600F04EF8AC
:102B000002206074204600F03CF9042510B1657481
:102B1000012070BD204600F0D3FF10B16574012084
:102B200070BD2068416821F007014160A06820B1B4
:102B30001848016821F00101016017480168A26886
:102B400021F46071114301606068B0F1FF3F04D16E
:102B50000120FEF74BFF98B1401E21688A6822F0E1
:102B60000F0242EA10428A602168CA6860F30F02CD
:102B7000CA60204600F0C2FF28B16574012070BD14
:102B80006574012070BDE67301206073A0736074EA
:102B9000002070BD306C00402C6C004008B500680F
:102BA000A0F18041B1F5205117D1FEF711FF0B487C
:102BB000C16941F00061C161C06900F0006000902E
:102BC0000120C10391FAA1F1B1FA81F1890001F16B
:102BD000844101F58401C1F8000408BD00100240E1
:102BE0002DE9F04104460D46002C3DD0002D3BD090
:102BF000207C01283BD00126267402206074002A24
:102C000038D0E87800F053FFE073687800F04FFFA9
:102C10006073A87800F04BFFA073A27B617BE07B20
:102C200000F0A2FF20732870204600F08CFF0146C0
:102C30004FF46160B1FBF0F00027182837D91E4A25
:102C4000A2FB00201D4A0009504301EBC015294694
:102C5000204600F0E4FF4FF0040890B184F81180A2
:102C600027740120BDE8F0810120BDE8F081022039
:102C7000BDE8F081E878E07368786073A878A073A5
:102C8000CBE7204600F058FFB0F1FF3F0FD0A8423D
:102C90000DD200F5803101F5A341204600F0A8FFD8
:102CA00028B184F8118027740120BDE8F081667492
:102CB00027740020BDE8F081ABAAAAAA5DFDFFFF42
:102CC0002DE9F04104460D46002C28D03DB3207C70
:102CD000012827D001262674022060742AB32878A0
:102CE00000F0E5FE4FF4616100FB01F7687800F049
:102CF000DEFEC0EB001007EB8007A87800F0D7FEDF
:102D00003D182946204600F08AFF00274FF00408AE
:102D1000B8B184F8118027740120BDE8F08101204A
:102D2000BDE8F0810220BDE8F08128784FF46161B0
:102D300041436878C0EB001001EB8000A97845188A
:102D4000DFE72068416821F005014160204600F07E
:102D5000F3FEB0F1FF3F0FD0A8420DD200F5803155
:102D600001F5A341204600F043FF28B184F811800B
:102D700027740120BDE8F081667427740020BDE847
:102D8000F08170B50446002C0DD02068416821F018
:102D900008014160FEF704FD05462068406810F018
:102DA000080F02D00EE0012070BDFEF7F9FC401BB9
:102DB000B0F57A7F01D9032070BD2068406810F01B
:102DC000080FF2D0002070BD4FF0E021042804D09D
:102DD000086920F0040008617047086940F00400A9
:102DE0000861704770470000401EB0F1807F01D33A
:102DF000012070474FF0E0214861044AF020107034
:102E000000208861072008610020704723ED00E062
:102E100010B5FFF7E7FF10BD10B490F83820012A75
:102E20002AD0012380F83830022280F83920026845
:102E3000D2F804C02CF0700CC2F804C00268D2F8BA
:102E400004C00C684CEA040CC2F804C00268D2F852
:102E500008C02CF0800CC2F808C00268D2F808C084
:102E600049684CEA0101916080F83930002180F80E
:102E7000381010BC0020704710BC0220704710B5FD
:102E80000446002C03D094F8390010B107E001206B
:102E900010BD002084F83800204600F00DF8022014
:102EA00084F83900211D206801F012F8012084F80F
:102EB0003900002010BD000000B587B00068164939
:102EC000B0F1804F1ED0A0F18042B2F5806217D1E0
:102ED000C86940F00200C861C86900F002000190B2
:102EE0002020029002200390059002A90B48FEF7D3
:102EF00057FB0B48416821F4406141F40061416097
:102F000007B000BDC86940F00100C861C86900F0A1
:102F10000100019007B000BD00100240000C01400C
:102F20000000014070B5044694F83800012818D01C
:102F3000012584F83850022084F83900206882681E
:102F400022F0770222F47F428260086850283AD04B
:102F50000EDC20285FD006DC002852D0102863D178
:102F600054E0022070BD30285AD040285CD13EE0A9
:102F7000602832D070280CD0B0F5805F03D0B0F557
:102F8000005F51D113E02068816821F00701816062
:102F90004AE0CB684A688968206800F0DAFF206858
:102FA000816821F0770141F0770181603CE0CB68D6
:102FB0004A688968206800F0CCFF2068816841F485
:102FC0008041816030E0CA684968206801F097F864
:102FD0005021206800F0C8FF26E0CA6849682068D0
:102FE00001F0A0F86021206800F0BEFF1CE0CA6874
:102FF0004968206801F083F84021206800F0B4FFA0
:1030000012E00021206800F0AFFF0DE010212068E1
:1030100000F0AAFF08E02021206800F0A5FF03E0EF
:103020003021206800F0A0FF84F83950002084F897
:10303000380070BD70B504460D4694F8380001287C
:103040000DD0012684F83860022084F8390042B19E
:10305000042A1AD0082A2DD00C2A53D13EE002208F
:1030600070BD2946206800F087FF2068816941F023
:10307000080181612068816921F004018161206873
:1030800081692A69114381613CE02946206800F08A
:10309000A7FF2068816941F400618161206881692E
:1030A00021F480618161206881692A6941EA0221F5
:1030B000816127E02946206800F0C6FF2068C169C9
:1030C00041F00801C1612068C16921F00401C161BA
:1030D0002068C1692A691143C16113E0294620684B
:1030E00000F0E6FF2068C16941F40061C161206819
:1030F000C16921F48061C1612068C1692A6941EA1E
:103100000221C16184F83960002084F8380070BD64
:1031100010B50446002C03D094F8390010B107E034
:10312000012010BD002084F83800204600F00CF883
:10313000022084F83900211D206800F0C9FE01201A
:1031400084F83900002010BD704710B504460122F4
:10315000206800F0F1FE2068A0F18041B1F59631C1
:1031600003D1416C41F4004141642068016841F0A1
:1031700001010160002010BD10B504460022206846
:1031800000F0DAFE216841F211129310A1F18040A3
:10319000B0F5963009D1086A104206D1086A184283
:1031A00003D1486C20F4004048642068016A114251
:1031B00006D1016A194203D1016821F001010160C1
:1031C000012084F83900002010BD704738B504464E
:1031D0002168086800F00100CA6802F480720028C3
:1031E00007D032B1086848680090E06B40F00100F9
:1031F000E0630868C0F34002486900F001003AB19A
:1032000030B10A684A680092E26B42F00402E2635D
:103210000A68C2F380023AB130B10A684A68009283
:10322000E26B42F00202E2630A68C2F3C0023AB102
:1032300030B1086848680090E06B40F00800E06337
:103240000868C0F34010C96801F0200118B111B13D
:10325000204600F0E1FF20680168C1F3C011C0689A
:1032600000F0800019B110B1204601F0BDF82068CF
:103270000168C1F38011C06800F0400019B110B1BD
:10328000204600F0AFFFE06B002805D0012084F855
:1032900039002046FFF799FF38BD70B50446002C71
:1032A00004D094F83900002510B106E0012070BD6B
:1032B00084F83850204600F021F8022084F83900C4
:1032C0002068C16821F40051C160204600F0FCFF75
:1032D0002068016921F4904101612068416921F071
:1032E0002A0141612068C16841F40051C160E56371
:1032F000012084F83900002070BD0000F0B587B0CF
:1033000004462068A0F18041B1F59C3145D12448A4
:10331000816941F480418161806900F480400190BD
:103320004FF40070029002200390032005901D4E80
:1033300002A93046FEF734F93015029000250395B6
:10334000049502A93046FEF72BF9184E1648306056
:1033500010207060B5608027F76035617561B561D8
:10336000F5613046FDF7F0FF26637462114E104898
:1033700030607560B560F76035617561B561F561A4
:103380003046FDF7E1FF6663746200221146252096
:10339000FEF7D8FA2520FEF7C9FA07B0F0BD000005
:1033A000001002400008014044000240CC0100200F
:1033B000580002400402002037B50446134694F832
:1033C0003900012804D0122802D003B0022030BDF9
:1033D000019A52B34BB394F83800012828D0012049
:1033E00084F83800A262A3850025E56394F83900CB
:1033F000122820D0222084F83900616B104888629E
:10340000616B1048C862616B0F4808632068011D3A
:10341000606BFDF7CAFF2068416941F040014161DE
:1034200084F8385003B0002030BD03B0012030BD17
:1034300003B0022030BD322084F83900DDE70000FF
:1034400067410008A14100084941000810B5006823
:10345000A0F18041B1F59C310DD1074C00202070C6
:103460000121064800F094FC012204490448FFF7BA
:10347000A3FF0120207010BD0C0000200E000020D2
:103480008C0100207047000037B5044694F83900DD
:10349000012804D0222802D003B0022030BD0199B7
:1034A000002933D0002A31D094F83800012830D0D8
:1034B000012084F838002162A284E2840025E563BB
:1034C00094F83900222827D0122084F83900236B81
:1034D00013489862236B1348D862236B1248186311
:1034E0002068134600F1040C6246206BFDF75DFF77
:1034F00021686FF0400008602068416941F0800158
:10350000416184F8385003B0002030BD03B0012081
:1035100030BD03B0022030BD322084F83900D6E738
:10352000AB410008DB410008494100087047704783
:1035300010B50E492022A1F1200000F00DFA0C492F
:103540002022A1F1300000F007FAFEF715F8FDF790
:10355000D1F9084808490088FDF726FBFDF7B8FFB8
:10356000054806490088888010BD00005C020020E4
:103570007C0200201C0000202200002014000020FB
:1035800030B400250023DFF838C047F6FF74002967
:103590000CD930F91320624500DD9446A24200DACE
:1035A000144615445A1C93B28B42F2D3A5EB0C007F
:1035B000001B891E90FBF1F030BC00B27047000088
:1035C0000080FFFF30B583B00C480B490160002438
:1035D0008460C46044614FF46021C161446001258E
:1035E0000561FDF7C7FC0094019502946946034804
:1035F000FDF7F4FB03B030BD00240140C000002003
:1036000008B50D48416941F001014161406900F090
:1036100001000090002211460E20FEF793F90E20C3
:10362000FEF784F9002211460F20FEF78BF9BDE862
:1036300008400F20FEF77AB900100240F0B587B0BD
:103640002348816941F010018161816901F0100115
:103650000191816941F020018161816901F02001BE
:103660000191816941F004018161816901F00401E6
:103670000191816941F008018161806900F00800D1
:10368000019004200290012403940226059602A9C9
:103690001048FDF785FF02940025039504950E4F11
:1036A00002A93846FDF77CFF40F2024002900B4829
:1036B0000390049502A93846FDF772FFE0020290DC
:1036C0000394059602A93846FDF76AFF07B0F0BDDE
:1036D0000010024000080140000C014000001110E1
:1036E0000548044901600021416040F6FF71816096
:1036F000FEF75CB800300040F000002030B585B027
:103700001648154901604FF0FF3141600024846084
:10371000FFF7E8F98DF80C408DF80D408DF80E405C
:10372000012203A90D48FFF7CBFA01258DF80850B7
:103730008DF809508DF80A508DF80B40012202A92E
:103740000648FFF74DFA00950220019069460348AC
:10375000FFF794F905B030BD0028004000010020BB
:1037600010B586B00D484FF080410160472141609F
:1037700000248460C4600461FFF781FB4FF4805033
:10378000029002A90548FFF7CDFB1020009001949C
:1037900069460248FFF740FB06B010BD1401002047
:1037A00010B58EB0154814490160472141600024CE
:1037B000846040F2E731C1600461FFF760FB4FF4C1
:1037C00080500A900AA90D48FFF7ACFB0B48FFF7A1
:1037D0009FFC0894099408A90848FFF71DFB602086
:1037E0000190C820029003940594042201A9034883
:1037F000FFF720FC0EB010BD000400405001002077
:103800000848074901604FF416514160002181606A
:10381000C16001610C2242618161C161FFF73DBD60
:10382000003801408C0100202DE9F05F2A4D2880EE
:1038300069800B00A0EB010004B2AC8040F2E737D6
:10384000C82C01DDAF6142E004F1C7004FF0000871
:10385000B0F5C77F37D8B5F90800B5F90660204440
:10386000714200EB4100FCF769FD6969FCF7C2FC9D
:1038700081462046FCF762FD2969FCF7BBFC8246C5
:10388000A01BFCF75BFDE968FCF7B4FC8346E86924
:10389000FCF754FD5946FCF755FC5146FCF752FC29
:1038A0004946FCF74FFCFCF763FDA8612E81EC80D4
:1038B000E861002802DAC5F8188008E0B0F57A7FE0
:1038C00005DBAF6103E0002C01DAC5F81880288B16
:1038D00080B2BDE8F09F00002800002030B59DB008
:1038E00005461B480090472001900024029440F2B6
:1038F000E731039104946846FFF7C1FA4FF4805111
:10390000189118A96846FFF70DFB6846FFF700FC01
:103910001694179416A96846FFF77EFA60200F9058
:1039200010951194139404220FA96846FFF782FBA7
:103930000848007828B104216846FFF706FC1DB04E
:1039400030BD04216846FFF717FC1DB030BD0000F4
:1039500000040040140000200260C16041608160EA
:103960000020704730B44FF0000C8368002A12D951
:10397000C46805685B1C2C449C4200D8C36844683A
:103980009C4208D011F8014B85682C7083600CF1C3
:10399000010C9445ECD330BC60467047F0B4D0F8CD
:1039A00004C005680CE09CF800408C420DD0C4684F
:1039B00006680CF1010C3444644501D8D0F80CC001
:1039C0008468644501D06D1EEDD28468644506D1DB
:1039D000C1684160C1688160F0BC00207047B5F1EA
:1039E000FF3F08D0C468066826440CF10104A642D3
:1039F00012D8C46810E0C1684160C1688160F0BC41
:103A00000020704726788E420BD0C6680768641C79
:103A10003E44A64200D8C4688668A64201D06D1E06
:103A2000F0D28168A14206D1C1684160C16881605D
:103A3000F0BC00207047B5F1FF3F0AD0C1680668AE
:103A40003144661CB14200D8C66801684C1B002195
:103A500012E0C1684160C1688160F0BC002070471D
:103A60001CF8017B0D46491C5755C56807683D4445
:103A7000654501D8D0F80CC0B44506D0994204D2AF
:103A800005688D4201D9641EEAD202290ADC0021B0
:103A9000C268ACF1010C944504D2C26803681A44B0
:103AA000A2F1010CC0F804C0F0BC0846704701093F
:103AB00001EB8101490000F00F000844C0B27047DB
:103AC00070B50446FDF76CFE05462068406810F0AE
:103AD000200F0CD1FDF764FE401BB0F57A7F01D9B1
:103AE000032070BD2068406810F0200FF2D02068DD
:103AF000416841F010014160002070BD70B504467E
:103B00002068416821F010014160FDF749FE05463B
:103B10002068406810F0200F0CD1FDF741FE401BDB
:103B2000B0F57A7F01D9032070BD2068406810F09D
:103B3000200FF2D0002070BD0068016A406A80B298
:103B400040EA014070470068816989B2C26993B256
:103B5000826992B2914203D0C06962F31F407047FC
:103B600043EA01407047000010B400F5FA63C1EB6E
:103B7000C10C0CEB011C40F639640CFB04FC02EB9D
:103B8000DC3218461044184ADFF860C04FF4C8749D
:103B9000032913D2591E00EB9103A2FB0120B1FBB4
:103BA000F4F1A3EB50100844001D62460021E0FB35
:103BB0000C214908A1EBC101084411E000EB93017D
:103BC000A2FB0320A1EB5010B3FBF4F10844074A19
:103BD000801C0021E0FB0C214908A1EBC101084435
:103BE00010BCC0B2704700001F85EB5149922449B8
:103BF00070B505460E4600242846FFF761FF08B160
:103C000001240AE02968300C08622968B0B24862D1
:103C10002846FFF773FF00B10124204670BD70B540
:103C200005460E4600242846FFF74AFF08B1012446
:103C30000AE02968300C88612968B0B2C86128465A
:103C4000FFF75CFF00B10124204670BD30B583B0A2
:103C500000246D46FCF7BCFCFCF78AFB25F8140039
:103C6000641C042CF6DB04216846FFF789FC02493A
:103C7000C88003B030BD0000140000200B4602468F
:103C8000FF210148FFF78ABE3C02002070B53D4E7F
:103C900000253D4C3078012807D17570062104F1CC
:103CA0004E00FFF7EBFF0120707094F84E00FF28E4
:103CB00062D194F85300FF285ED1616C04F14F008B
:103CC000884794F85210814256D194F84F00052845
:103CD00052D2DFE800F05103152740006168B4F8C4
:103CE00050008847D4F84E00A064B4F85200A4F8FD
:103CF0004C00062204F148012448FFF7C5FB3BE0D5
:103D00006169B4F850008847D4F84E00A064B4F854
:103D10005200A4F84C00062204F148011B48FFF7AA
:103D2000B3FB29E0E0698047B080D4F84E10A1646D
:103D3000B4F85210A4F84C10A4F84A00616C04F1D5
:103D40004900884784F84C00062204F148010F48D6
:103D5000FFF79AFB10E0616A94F850008847D4F8A6
:103D60004E00A064B4F85200A4F84C00062204F1FE
:103D700048010648FFF788FBC4F84E50A4F852509B
:103D800070BD00000C000020480000208C010020C5
:103D90000A4601460148FFF7E5BD00003C0200204D
:103DA00001494880704700001400002010B5044607
:103DB000FDF7E2FB044821460088FCF763FFFDF7AE
:103DC00087FB0248848010BD1C00002014000020E6
:103DD0007047000000B58FB008490091084908708D
:103DE000002805D004216846FFF7AFF90FB000BDE9
:103DF00004216846FFF7C0F90FB000BD0004004081
:103E00001400002010B5FDF749FDBDE81040FEF795
:103E1000FFBF30B595B009200A904FF480300B9069
:103E200000240C94012110910225119512904FF459
:103E3000E01013900AA8FEF753F9052005900695A7
:103E40000794680208900994022105A8FDF726FF4F
:103E500003200090280201904FF4404002906846F1
:103E6000FDF758FEFEF7AAF84FF4FA51B0FBF1F057
:103E7000FEF7BAFF0020FEF7A7FF00221146501EF2
:103E8000FDF760FD15B030BD0E48016841F001013D
:103E9000016041680C4A11404160016821F4102121
:103EA00021F080710160016821F480210160416886
:103EB00021F4FE0141604FF41F0181600349C003FA
:103EC00008607047001002400000FFF808ED00E0B5
:103ED00030B40268DFF854C0154C164B604506D06C
:103EE000B0F1804F03D0A04201D0984203D122F01C
:103EF00070024D682A43604506D0B0F1804F03D070
:103F0000A04201D0984203D122F44072CB681A43F8
:103F100002608A68C2620A688262604501D10969EA
:103F200001630121416130BC70470000002C014059
:103F3000000400400008004001238B40D0F820C05E
:103F40002CEA03030362036A02FA01F119430162D6
:103F50007047D0F808C02CF47F4C42EA032211438A
:103F600041EA0C0181607047826822F070021143BF
:103F700041F007018160704710B4026A22F001022B
:103F80000262036A4268D0F818C02CF0700C2CF062
:103F9000030C0C6844EA0C0C23F002038C682343E6
:103FA0000E4CA04206D123F00803CC6844EA030378
:103FB00023F0040309D122F4807222F400724C69C8
:103FC00044EA02028C6944EA02024260C0F818C066
:103FD00049684163036210BC70470000002C014037
:103FE00010B4026A22F010020262036A4268D0F83A
:103FF00018C02CF4E04C2CF4407C0C684CEA042CE7
:1040000023F020038C6843EA04130E4CA04206D12F
:1040100023F08003CC6843EA041323F0400309D162
:1040200022F4806222F400624C6942EA84028C69C4
:1040300042EA84024260C0F818C0496881630362A2
:1040400010BC7047002C014010B4026A22F4807248
:104050000262036A4268D0F81CC02CF0700C2CF08D
:10406000030C0C6844EA0C0C23F400738C6843EADC
:1040700004230E4CA04206D123F40063CC6843EA2B
:10408000042323F4806309D122F4805222F40052E5
:104090004C6942EA04128C6942EA04124260C0F898
:1040A0001CC04968C163036210BC7047002C01400A
:1040B00010B4026A22F480520262036A4268D0F8A5
:1040C0001CC02CF4E04C2CF4407C0C684CEA042C12
:1040D00023F400538C6843EA0433A0F18044B4F520
:1040E000963404D122F480424C6942EA8412426040
:1040F000C0F81CC049680164036210BC7047036AC1
:10410000D0F820C02CF0010CC0F820C0D0F818C0A6
:104110002CF0F00C4CEA021223F00A0319438261DE
:1041200001627047036A23F010030362D0F818C0DD
:10413000036A2CF4704C4CEA023223F0A00343EAE9
:10414000011182610162704710B5406A0021C1858A
:10415000C184012180F83910C16B41F01001C163A5
:10416000FFF733F810BD10B50146486A09680968C1
:1041700011F0200F0DD10021C18501684A6922F09C
:1041800040024A6190F83910322905D0012180F8A7
:104190003910FFF75BF910BD122180F83910F8E7EC
:1041A00010B5406AFFF76EF910BD10B50146486AB8
:1041B0000968096811F0200F02D0FFF7B7F910BDA8
:1041C0000021C18401684A6922F080024A610068C6
:1041D000C16841F04001C16010BD10B5406AFFF7F1
:1041E000A6F910BD10B50168CA6822F04002CA6085
:1041F00090F8391032290BD001684A6922F0010287
:104200004A61012180F83910FFF790F9002010BDB4
:10421000222180F83910F7E710B590F839102229DB
:1042200003D0322901D0022010BD8168B1F5805F32
:1042300011D0016919B30168496801F07F02816AF0
:104240004B1C83620A70C18D491E0904090CC1858B
:104250001CD0002010BD816A02693AB10268526820
:10426000D2B20A80816A491C8162ECE70268526816
:10427000C2F308020A80816A891C8162E3E701684F
:104280004A68816A4B1C83620A70DCE70168CA686D
:1042900022F02002CA6090F83910322910D001684B
:1042A000CA6822F48072CA6001684A6922F0010279
:1042B0004A61012180F83910FFF7C8F8002010BDCD
:1042C000122180F83910F7E72DE9F0410446206803
:1042D0000169E26821F44051114301612169A0683C
:1042E0000843616901432068C26822F4037222F422
:1042F000A0521143C16020684169A26921F4407154
:10430000114341612068374D3226A0F18041B1F55B
:104310009C3133D0FDF76CFE00EBC00101EB0010C7
:1043200061688900B0FBF1F0A5FB00104709FDF7BB
:104330005FFE00EBC00101EB001061688900B0FB7B
:10434000F1F8FDF755FE00EBC00101EB00106168CC
:104350008900B0FBF1F0A5FB001040096FF01801D7
:10436000484308EB800006EB0010A5FB0010216815
:10437000400967F31F108860BDE8F081FDF74EFE2D
:1043800000EBC00101EB001061688900B0FBF1F0A7
:10439000A5FB00104709FDF741FE00EBC00101EB52
:1043A000001061688900B0FBF1F8FDF737FE00EB03
:1043B000C00101EB001061688900B0FBF1F0A5FBC2
:1043C000001040096FF01801484308EB800006EB2D
:1043D0000010A5FB00102168400967F31F108860DA
:1043E000BDE8F0811F85EB5190F83910122903D0F8
:1043F000322901D0022070478168B1F5805F0CD06E
:10440000016A4A1C0262026809785160C18C491E27
:104410000904090CC18410D019E0016A02680988F6
:10442000C1F308015160016919B1016A491C0162B7
:10443000ECE7016A891C0162E8E70168CA6822F0BA
:104440008002CA600068C16841F04001C16000207C
:10445000704700000148FEF7B9BE00008C01002043
:10446000014606220148FEF7A7BF00008C0100208C
:10447000014606220148FFF707B800008C01002022
:1044800002E008C8121F08C1002AFAD1704770471D
:10449000002001E001C1121F002AFBD1704730B497
:1044A000044600204FF0030C0022E023A15C4840AA
:1044B000002110F0010F02D083EA500000E0400814
:1044C000491CC9B20829F4D3511CCAB26245EDD3C4
:1044D00030BC7047FDF764F90546FDF761F9064603
:1044E000FDF75EF90746FDF7E1F9FFF792FCFFF7EC
:1044F000A5F8FFF785F8FFF765F8FFF7F1F8FFF784
:10450000FDF8FFF72DF9FFF74BF9FFF779F91D4C8F
:104510002068804701221C491C48FEF74DFF1C48BB
:10452000FDF7A5F9DFF86C80FDF73AF9401BC828C4
:1045300004D9FDF735F90546FFF7A8FBFDF730F97B
:10454000801BB0F5FA7F04D9FDF72AF90646206AE8
:104550008047FDF725F9C01BB0F5FA7F0ED9FDF7AE
:104560001FF90746E06980478146A0698047226CB1
:1045700049469047A8F80600616B88470448FDF754
:1045800046F9D1E7480000200E0000208C010020F1
:10459000F00000200C0000200008000000000102D4
:1045A000030401020304060708090000CC450008C3
:1045B00000000020A0000000804400086C460008B5
:1045C000A0000020000600009044000800A24A0459
:1045D000000C01400000000000010000000000008D
:1045E00001003200740E00005555666677770000B2
:1045F00000000000000000000000000000000000BB
:1046000000002041000000000000404000000000C9
:104610002C01000031350008A13D0008F307000817
:10462000ED070008F9070008AD3D0008CD0D0008B2
:10463000C10D00084D3C0008D53D0008BD0D000827
:10464000D13D0008D90D0008DD380008714400088C
:1046500061440008293800089F4400080000000059
:0C4660000000000000000000000000004E
:04000005080000ED02
:00000001FF
